{
  "contractName": "Lottery",
  "abi": [
    {
      "inputs": [],
      "stateMutability": "nonpayable",
      "type": "constructor"
    },
    {
      "inputs": [
        {
          "internalType": "uint256",
          "name": "",
          "type": "uint256"
        }
      ],
      "name": "participants",
      "outputs": [
        {
          "internalType": "address payable",
          "name": "",
          "type": "address"
        }
      ],
      "stateMutability": "view",
      "type": "function",
      "constant": true
    },
    {
      "stateMutability": "payable",
      "type": "receive",
      "payable": true
    },
    {
      "inputs": [],
      "name": "getBalance",
      "outputs": [
        {
          "internalType": "uint256",
          "name": "",
          "type": "uint256"
        }
      ],
      "stateMutability": "view",
      "type": "function",
      "constant": true
    },
    {
      "inputs": [],
      "name": "random",
      "outputs": [
        {
          "internalType": "uint256",
          "name": "",
          "type": "uint256"
        }
      ],
      "stateMutability": "view",
      "type": "function",
      "constant": true
    },
    {
      "inputs": [],
      "name": "selectWinner",
      "outputs": [],
      "stateMutability": "nonpayable",
      "type": "function"
    }
  ],
  "bytecode": "0x608060405234801561001057600080fd5b50336000806101000a81548173ffffffffffffffffffffffffffffffffffffffff021916908373ffffffffffffffffffffffffffffffffffffffff1602179055506106ad806100606000396000f3fe6080604052600436106100435760003560e01c806312065fe0146100c657806333a99e04146100f157806335c1d349146101085780635ec01e4d14610145576100c1565b366100c157670de0b6b3a764000034101561005d57600080fd5b6001339080600181540180825580915050600190039060005260206000200160009091909190916101000a81548173ffffffffffffffffffffffffffffffffffffffff021916908373ffffffffffffffffffffffffffffffffffffffff1602179055005b600080fd5b3480156100d257600080fd5b506100db610170565b6040516100e89190610486565b60405180910390f35b3480156100fd57600080fd5b506101066101d1565b005b34801561011457600080fd5b5061012f600480360381019061012a91906104d2565b61034d565b60405161013c9190610540565b60405180910390f35b34801561015157600080fd5b5061015a61038c565b6040516101679190610486565b60405180910390f35b60008060009054906101000a900473ffffffffffffffffffffffffffffffffffffffff1673ffffffffffffffffffffffffffffffffffffffff163373ffffffffffffffffffffffffffffffffffffffff16146101cb57600080fd5b47905090565b60008054906101000a900473ffffffffffffffffffffffffffffffffffffffff1673ffffffffffffffffffffffffffffffffffffffff163373ffffffffffffffffffffffffffffffffffffffff161461022957600080fd5b6003600180549050101561023c57600080fd5b600061024661038c565b905060006001805490508261025b919061058a565b905060018181548110610271576102706105bb565b5b9060005260206000200160009054906101000a900473ffffffffffffffffffffffffffffffffffffffff1673ffffffffffffffffffffffffffffffffffffffff166108fc6102bd610170565b9081150290604051600060405180830381858888f193505050501580156102e8573d6000803e3d6000fd5b50600067ffffffffffffffff811115610304576103036105ea565b5b6040519080825280602002602001820160405280156103325781602001602082028036833780820191505090505b50600190805190602001906103489291906103c6565b505050565b6001818154811061035d57600080fd5b906000526020600020016000915054906101000a900473ffffffffffffffffffffffffffffffffffffffff1681565b600044426001805490506040516020016103a89392919061063a565b6040516020818303038152906040528051906020012060001c905090565b82805482825590600052602060002090810192821561043f579160200282015b8281111561043e5782518260006101000a81548173ffffffffffffffffffffffffffffffffffffffff021916908373ffffffffffffffffffffffffffffffffffffffff160217905550916020019190600101906103e6565b5b50905061044c9190610450565b5090565b5b80821115610469576000816000905550600101610451565b5090565b6000819050919050565b6104808161046d565b82525050565b600060208201905061049b6000830184610477565b92915050565b600080fd5b6104af8161046d565b81146104ba57600080fd5b50565b6000813590506104cc816104a6565b92915050565b6000602082840312156104e8576104e76104a1565b5b60006104f6848285016104bd565b91505092915050565b600073ffffffffffffffffffffffffffffffffffffffff82169050919050565b600061052a826104ff565b9050919050565b61053a8161051f565b82525050565b60006020820190506105556000830184610531565b92915050565b7f4e487b7100000000000000000000000000000000000000000000000000000000600052601260045260246000fd5b60006105958261046d565b91506105a08361046d565b9250826105b0576105af61055b565b5b828206905092915050565b7f4e487b7100000000000000000000000000000000000000000000000000000000600052603260045260246000fd5b7f4e487b7100000000000000000000000000000000000000000000000000000000600052604160045260246000fd5b6000819050919050565b61063461062f8261046d565b610619565b82525050565b60006106468286610623565b6020820191506106568285610623565b6020820191506106668284610623565b60208201915081905094935050505056fea26469706673582212205347867e4b2ee6aa3b1b86a0bc16d05258c8cb3fc5d29abf9e2ef628610e666064736f6c634300080d0033",
  "immutableReferences": {},
  "source": "// SPDX-License-Identifier: MIT\r\npragma solidity ^0.8.13;\r\n\r\ncontract Lottery{\r\n    address manager;\r\n    address payable [] public participants;\r\n\r\n    constructor(){\r\n        manager = msg.sender;   //global variable\r\n    }\r\n\r\n    receive() payable external{\r\n        require(msg.value >= 1 ether);\r\n        participants.push(payable(msg.sender));\r\n    }\r\n\r\n    function getBalance() public view returns(uint){\r\n        require(msg.sender == manager);\r\n        return address(this).balance;\r\n    }\r\n\r\n    function random() public view returns(uint){\r\n        return uint(keccak256(abi.encodePacked(block.difficulty, block.timestamp, participants.length)));\r\n    }\r\n\r\n    function selectWinner() public{\r\n        require(msg.sender == manager);\r\n        require(participants.length >= 3);\r\n        uint r = random();\r\n        uint i = r % participants.length;\r\n        participants[i].transfer(getBalance());\r\n        participants = new address payable[](0);\r\n    }\r\n}",
  "sourcePath": "D:\\Practice\\BlockChain\\Project\\Lottery App\\contracts\\lottery.sol",
  "compiler": {
    "name": "solc",
    "version": "0.8.13+commit.abaa5c0e.Emscripten.clang"
  },
  "schemaVersion": "3.4.7",
  "updatedAt": "2022-06-07T02:45:46.477Z",
  "networkType": "ethereum",
  "devdoc": {
    "kind": "dev",
    "methods": {},
    "version": 1
  },
  "userdoc": {
    "kind": "user",
    "methods": {},
    "version": 1
  }
}